:020000040800F2
:1000000018080020AD02000833100008E10F0008B6
:100010003110000819030008F91100080000000061
:100020000000000000000000000000003710000881
:100030001B030008000000003510000839100008FC
:10004000C7020008C7020008C7020008C70200086C
:10005000C7020008C7020008C7020008C70200085C
:10006000C7020008C7020008C7020008C70200084C
:10007000C7020008C7020008C7020008C70200083C
:10008000C7020008C7020008C7020008C70200082C
:10009000C7020008C7020008C7020008C70200081C
:1000A000C7020008C7020008C7020008C70200080C
:1000B000C7020008C7020008C7020008C7020008FC
:1000C000C7020008C7020008C7020008C7020008EC
:1000D000C7020008C7020008C7020008C7020008DC
:1000E000C7020008C702000800000000C70200089D
:1000F000C7020008C7020008C7020008C7020008BC
:10010000C7020008C7020008C7020008C7020008AB
:10011000C7020008C7020008C7020008C70200089B
:10012000C7020008C7020008C7020008C70200088B
:10013000C7020008C7020008C7020008C70200087B
:1001400000000000000000000000000000000000AF
:10015000C7020008C7020008C7020008C70200085B
:10016000C7020008C7020008C7020008C70200084B
:10017000C7020008C7020008C7020008C70200083B
:10018000C7020008C7020008C7020008C70200082B
:10019000C7020008C7020008C7020008C70200081B
:1001A000C7020008C7020008C7020008C70200080B
:1001B000C7020008C7020008C7020008C7020008FB
:1001C000C7020008C7020008C7020008C7020008EB
:1001D000C7020008C7020008C7020008C7020008DB
:1001E000C7020008C7020008C7020008C7020008CB
:1001F000C7020008C7020008C7020008C7020008BB
:10020000C7020008C7020008C7020008C7020008AA
:10021000C7020008C7020008C7020008C70200089A
:10022000C7020008C7020008C7020008000000005B
:10023000C7020008C702000800000000C70200084B
:10024000C7020008C7020008C7020008C70200086A
:10025000C7020008C7020008C7020008C70200085A
:10026000C7020008C7020008C7020008C70200084A
:10027000C7020008C7020008C7020008000000000B
:10028000C7020008C7020008C702000800000000FB
:1002900000000000C7020008DFF80CD000F02AF8C8
:1002A000004800473D120008180800200648804713
:1002B00006480047FEE7FEE7FEE7FEE7FEE7FEE74B
:1002C000FEE7FEE7FEE7FEE71D11000899020008C1
:1002D000D2B201E000F8012B491EFBD27047002288
:1002E000F6E710B513460A4604461946FFF7F0FF35
:1002F000204610BD064C074D06E0E06840F00103C3
:1003000094E8070098471034AC42F6D3FFF7C8FFD3
:10031000DC120008FC120008FEE770470148006884
:10032000000C70470010005C0148806870470000B6
:100330000000002002488168027811448160704703
:1003400000000020032010B500F078F800F0D8FA83
:100350000F4A104914681368C4F3032203F00F0313
:100360008A5CC95C02F01F0201F01F01D0400A4AFA
:1003700020FA01F11160094908600F2000F010F81F
:1003800008B1012010BD00F02BF8002010BD0000C6
:1003900018440258CC120008100000200C00002065
:1003A00070B50D4D04462878A0B14FF47A71B1FBB9
:1003B000F0F00A490968B1FBF0F000F0FEFD48B921
:1003C000102C07D200222146501E00F017F8002002
:1003D0006C6070BD012070BD000000200C0000208A
:1003E000054808B5016841F002010160006800F0AD
:1003F0000200009008BD0000F44402580E4BF0B417
:100400001B680D46C3F30223C3F10706042E00D96F
:100410000426191D072901D2002300E0DB1E012458
:1004200004FA06F19C40491E2940641E994014407C
:100430002143F0BC00F0E1BE0CED00E0064900F005
:10044000070210B54FF6FF040868044B204040EA4D
:1004500002201843086010BD0CED00E00000FA0512
:10046000134970B50A68D243520705D5096801F0EF
:100470000701814213D118E00A6822F00702024303
:100480000A60FFF751FF0A4D4FF47A760446083DA3
:1004900007E000BFFFF748FF001BB04201D9012071
:1004A00070BD2868C0438004F4D4002070BD0000F3
:1004B0000C4802582DE9F05F04000F467ED0DFF8AB
:1004C0003882D8F8000000F00F00B8420CD2D8F8FB
:1004D000001021F00F013943C8F80010D8F80000CF
:1004E00000F00F00B84269D12078844D40070AD54A
:1004F0002069296801F07001884204D9296821F037
:1005000070010143296020787C4E361D00070AD512
:100510006069316801F07001884204D9316821F0C6
:100520007001014331602078C0060AD5A0693168A6
:1005300001F4E061884204D9316821F4E0610143AB
:1005400031602078DFF8B4B180060BF1080B0CD5D0
:10055000E1695846DBF8002002F07002914204D9AC
:10056000026822F070020A430260207880070AD5F0
:10057000E068296801F00F01884204D9296821F058
:100580000F01014329602078C0073ED05B49A26873
:100590002868183920F470601043286060680228C9
:1005A00018D0032819D00968012819D04907002953
:1005B0004ADADFF848A1AAF1080A00E044E0DAF8D4
:1005C000002022F007020243CAF80020FFF7ACFE29
:1005D000814612E009688903E9E709688901E6E7CD
:1005E000C905E4E7FFF7A0FEA0EB090141F288305E
:1005F000814202D90320BDE8F09F6168DAF800006B
:1006000000F03800B0EBC10FECD1207880070AD59C
:10061000E068296801F00F01884204D2296821F0BE
:100620000F0101432960D8F80010404601F00F0186
:10063000B9420BD9016821F00F013943016000680C
:1006400000F00F00B84201D00120D4E72078400725
:100650000AD52069296801F07001884204D229680E
:1006600021F0700101432960207800070AD56069F4
:10067000316801F07001884204D2316821F07001C4
:10068000014331602078C0060AD5A069316801F4C1
:10069000E061884204D2316821F4E06101433160B5
:1006A000207880060CD5E1695846DBF8002002F07E
:1006B0007002914204D2026822F070020A43026082
:1006C00000F01EF90E492A682B68C2F3032203F0DA
:1006D0000F038A5CC95C02F01F0201F01F01D040C9
:1006E000084A20FA01F111600749086007480068CC
:1006F000BDE8F05FFFF754BE0020005218440258D6
:10070000CC120008100000200C0000200400002083
:100710002DE9F047704C206800F00F00072809D23F
:10072000206820F00F00C01D2060206800F00F003E
:1007300007287CD1FFF7F8FDDFF8A0810546D8F83F
:10074000000040F00100C8F8000004E0FFF7ECFDF5
:10075000401B022875D8D8F800004007F6D55F483E
:1007600000275E4E001D103603685D4943F080434C
:10077000036037605B4801605B4801605B4800686C
:10078000FFF70EFE002852D1FFF7CEFD054641F2DD
:10079000883904E0FFF7C8FD411B494551D830684E
:1007A00010F0380FF6D1FFF7BFFD51490546D8F8D4
:1007B00000000840C8F8000005E000BFFFF7B4FDE6
:1007C000401B64283DD8D8F800008003F6D4FFF71A
:1007D000ABFD0546D8F8000020F08070C8F8000096
:1007E00005E000BFFFF7A0FD401B022829D8D8F87C
:1007F00000008001F6D4FFF797FD0546D8F8000009
:1008000020F08060C8F8000005E000BFFFF78CFD15
:10081000401B022815D8D8F800000001F6D4FFF7D5
:1008200083FD0546D8F8000020F0805001E04EE03E
:1008300007E0C8F8000007E0FFF776FD401B02283C
:1008400002D90320BDE8F087D8F800008000F3D477
:10085000224D384627491835274B2E1D321D2F6053
:100860001E4F264D283730603E1D1060321D3B6004
:10087000131D35601D1D11602A1D161D1860331DC6
:100880002960106031601860D8F800304FF0FF35F3
:100890001249124A23F48023104ED0316032C8F836
:1008A0000030683610603560086840F480300860B9
:1008B000206800F00F0007280BD9206820F00F00F7
:1008C000C01D2060206800F00F00072801D0012023
:1008D000B8E70020B6E700000020005200440258AC
:1008E0000090D0030C000020100000200400002025
:1008F00045EDF6FF80020101000202020000FF0147
:10090000454970B545480968434B103B11F0380222
:1009100008D00111082A03D0102A0BD0182A0BD0B6
:10092000084670BD19688906FBD51968C1F3C10175
:10093000C84070BD3A4870BD3749374D18310C1D5D
:1009400024350A68096826682D6802F0030406F059
:100950000102C1F30511C5F3CC0515FB02F200EE4F
:10096000102AB8EE400AE9B32F4ADFED2E0AB7EE9F
:10097000001A6CB1DFED2D1A012C01D0022C43D0EE
:1009800002EE101A1068F8EE422A81EEA22A1EE04A
:100990001C68A40611D51B6801EE901A1168C3F3F8
:1009A000C103F8EE612AD84001EE900AC1F30800B5
:1009B000F8EE611A81EEA22A0BE001EE901ADFED4B
:1009C0001C2A00BFF8EE611A106882EEA12AC0F35B
:1009D000080001EE900AF8EE611A40EE201A31EE9E
:1009E000810A00E015E022EE000A1068C0F34620FC
:1009F000401C00EE900AF8EE600A80EE201ABCEE71
:100A0000C10A10EE100A70BD01EE901ADFED092A3E
:100A1000D8E7002070BD0000104402580090D003B9
:100A200040787D0100000039304402580024744AA7
:100A30000024744C20BCBE4B2DE9F05F04007DD037
:100A4000FF4F2078FE4D1837DFF8F493103DC007B4
:100A500048D0D9F80000396800F03800102815D0C7
:100A6000182803D101F0030002280FD06068B0F508
:100A7000803F12D010B1B0F5A02F18D0286820F414
:100A800080302860286820F4802009E028688003EE
:100A900028D560680028D2D024E0286840F480304F
:100AA0002860606888B1FFF73FFC064609E02868C7
:100AB00040F480202860F0E7FFF736FC801B6428B4
:100AC0006FD828688003F7D50CE0FFF72DFC0646A9
:100AD00005E000BFFFF728FC801B6428F0D82868D9
:100AE0008003F7D4207841F20308D54E0C3E8007EE
:100AF00069D5D9F80000396810F038000ED01828F0
:100B000001D188070AD0E06890B3296821F0190163
:100B100001432960FFF708FC824631E0286840075E
:100B200002D5E06800288AD0E168286820F0190022
:100B300008432860FFF7F8FB824607E0DFE000BFCC
:100B4000FFF7F2FBA0EB0A000228B9D8286840079B
:100B5000F6D500BFFFF7E2FB40451BD820694028CF
:100B600012D0316821F47C3141EA003030602AE053
:100B700018E000BFFFF7D8FBA0EB0A0002289FD8BF
:100B800028684007F6D5E5E7306820F47C3040F46B
:100B90000030EBE7207C316821F0FE4141EA006043
:100BA000E4E70DE1286820F001002860FFF7BCFBB6
:100BB000824605E0FFF7B8FBA0EB0A0002288DD8BB
:100BC00028684007F6D42078C0065DD5D9F8000023
:100BD000DFF86CB2396800F03800ABF1040B08287C
:100BE00010D0182803D101F0030001280AD0E069D1
:100BF0000028286838D040F080002860FFF794FB78
:100C0000824623E02868C00523D5E069802876D194
:100C10001FE0206A202821D0316821F0F84141EA04
:100C20008060306030E000BF94F82010DBF80020D6
:100C300022F07C5242EA0161CBF8001024E000BFB0
:100C4000FFF772FBA0EB0A00022898D82868C005BD
:100C5000F6D5FFF763FB4045E6D8DAE7306820F0C9
:100C6000F84040F08040DCE720F080002860FFF78B
:100C70005BFB064605E000BFFFF756FB801B022822
:100C80009DD82868C005F7D42078000729D56C487E
:100C90006169643000298046016811D041F001018A
:100CA0000160FFF741FB064605E000BFFFF73CFB94
:100CB000801B0228C9D8D8F800008007F6D510E0BC
:100CC00021F001010160FFF72FFB064605E000BFA0
:100CD000FFF72AFB801B022872D8D8F80000800793
:100CE000F6D42078800623D5A0690028286810D083
:100CF00040F480502860FFF717FB064605E036E118
:100D0000FFF712FB801B02285AD828688004F7D509
:100D10000EE020F480502860FFF706FB064604E052
:100D2000FFF702FB801B02284AD828688004F7D40A
:100D3000207840074FD5DFF80C81D8F8001041F437
:100D40008071C8F80010FFF7EFFA064605E000BF13
:100D5000FFF7EAFA801B642832D8D8F80000C005F3
:100D6000F6D5374EA068603601280AD008B10528AC
:100D700013D0306820F001003060306820F00400AB
:100D800002E0306840F001003060A06841F2883A2B
:100D900090B1FFF7C9FA80460AE0306840F00400DD
:100DA0003060EEE7FFF7C0FAA0EB0801514507D825
:100DB00030688007F6D50EE0FFF7B6FA804607E008
:100DC00084E000BFFFF7B0FAA0EB080151457DD8E1
:100DD00030688007F6D4606AB0B3DFF86480D9F871
:100DE000001008F120084FF6F87B08F10409C1F360
:100DF000C2010329A8F1040A69D00228286820F05A
:100E00008070286003D0FFF78FFA044684E0FFF774
:100E10008BFA064605E000BFFFF786FA801B022822
:100E200077D828688001F7D4E26A40F2F331386855
:100E300054F8283F884340EA02101843386004E021
:100E40001044025800480258B5E0217B43462289ED
:100E50004FF4FE0C208A4FF0FE474902267D521EB9
:100E6000401EA1F50071C2F308088AB2761E0CEA92
:100E7000004042EA08020243504607EA06610A437C
:100E80001A60DAF8002022F00102CAF80020D9F82E
:100E90000020266A22EA0B0242EAC602C9F80020B4
:100EA000DAF80010A26921F00C011143CAF8001011
:100EB0000168E26921F0020111430160016841F417
:100EC00080310160016841F4003101E021E027E058
:100ED0000160016841F480210160016841F0010175
:100EE0000160286840F080702860FFF71DFA044612
:100EF00005E000BFFFF718FA001B022809D8286890
:100F00008001F7D557E000BFFFF70EFA001B02285B
:100F100002D90320BDE8F09F28688001F4D44AE09C
:100F200039680128D8F8000021D0A26A01F0030333
:100F300093421CD1E26AC1F305118A4217D1216B99
:100F4000C0F30802491E8A4211D1616BC0F34622E8
:100F5000491E91420BD1A16BC0F30642491E91423A
:100F600005D1E16BC0F30660491E814201D001202A
:100F7000D0E7A16C4E46D9F80000C0F3CC00814206
:100F800019D0DAF80000554620F00100CAF8000038
:100F9000FFF7CAF94FEA0007FFF7C6F9B842FBD0DE
:100FA000A26C306820EA0B0040EAC200306028687A
:100FB00040F0010028600020ACE7401EB0F1807FC7
:100FC00010B501D3012010BD4FF0E02460610F2166
:100FD000601700F012F90020A0610721216110BD07
:100FE000FEE7000008B511480024009072B64FF0EB
:100FF000E020046144618461FFF78AFB4FF0FF3118
:10100000A00000F1E020641C082CC0F88011C0F89A
:101010008012F5D362B6009800994068096881F3A0
:101020000888002181F314888047FEE70098F01FAC
:10103000FEE7FEE770477047FFF77CB970B59CB0DC
:101040004C216846FFF74BF9202113A8FFF747F919
:101050000220FFF705FA2E4900242E480A6822F0E4
:1010600001020A600A68026842F4404202600268B3
:1010700002F440421B9202689204FCD5264A13688F
:1010800043F002031360126802F002021B9202682E
:1010900042F44042026002680A6842F001020A60BB
:1010A000096801F001011B9101688904FCD5022047
:1010B00009900DF1280C01260096C103019105222B
:1010C000C02304268CE80D00CDE90D0608250F90FD
:1010D000CDE9105468461294FFF7AEFC08B172B621
:1010E000FEE740201A903F210301CDE9165003226C
:1010F000CDE9180313AB13A883E816000421FFF70A
:10110000D9F9002801D072B6FEE71CB070BD00000E
:101110002C04005818480258F44402582C48F0B5E2
:101120002C4A016841F470010160106800F00F0062
:10113000072804D2106820F00F00C01D1060264957
:101140000020254C10340B68244D43F001030B6044
:1011500020600B682B400B60136803F00F03072B14
:1011600004D9136823F00F03DB1D13601A4C1C4ACB
:1011700018341C4B261D371D2060174C1A4D28347F
:101180003060261D3860371D23603B1D35601C1DF7
:101190003A60251D2E1D1860331D226028603260C4
:1011A00018600A680C4B114C22F4802260330A60EC
:1011B000186020686FF30F00B0F1005F03D20C4994
:1011C0000120C1F8080143F2D2000A490860F0BDCD
:1011D00088ED00E000200052004402587FEDF6EA5E
:1011E00080020101000202020000FF010010005C09
:1011F0000080005100400052FEE7090700284FEA36
:10120000116104DB00F1E02080F80014704700F069
:101210000F0000F1E02080F8141D704702E008C8BC
:10122000121F08C1002AFAD170477047002001E060
:1012300001C1121F002AFBD170470000214B002082
:101240001968890311D4BFF34F8FBFF36F8F1E4905
:101250000860BFF34F8FBFF36F8F196841F40031FF
:101260001960BFF34F8FBFF36F8F1968C90322D482
:10127000144970310860BFF34F8F081F43F6FF74A5
:101280000068114D1035C0F34E31C0F3C90204EAB5
:101290004116104646EA80772F60401EFAD2491E5A
:1012A000F5D2BFF34F8F186840F480301860BFF359
:1012B0004F8FBFF36F8FFFF745F8FFF7BFFEFFF7C4
:1012C00091FEFEE714ED00E050EF00E000000000AA
:1012D000010203040102030406070809FC120008C6
:1012E00000000020140000001C1200081013000869
:1012F00014000020040800002C1200080100000067
:1013000010000000000000000090D0030090D00307
:040000050800029954
:00000001FF
